:100000000C9461000C9473000C9473000C947300B6
:100010000C9473000C9473000C9473000C94730094
:100020000C9473000C9473000C9473000C94730084
:100030000C9473000C9473000C9473000C94730074
:100040000C94FD000C9473000C9473000C947300DA
:100050000C9473000C9473000C9473000C94730054
:100060000C9473000C947300000000002300260021
:10007000290000000000240027002A0000000000E2
:10008000250028002B0004040404040404040202D4
:100090000202020203030303030301020408102007
:1000A0004080010204081020010204081020000012
:1000B0000008000201000003040700000000000027
:1000C000000011241FBECFEFD8E0DEBFCDBF21E07E
:1000D000A0E0B1E001C01D92A930B207E1F70E9493
:1000E00047010C94FD010C940000833081F028F44A
:1000F000813099F08230A9F008958730A9F08830D6
:10010000C9F08430B1F4809180008F7D03C080916C
:1001100080008F7780938000089584B58F7784BDA9
:10012000089584B58F7DFBCF8091B0008F77809349
:10013000B00008958091B0008F7DF9CF1F93CF93C9
:10014000DF93282F30E0F901E255FF4F8491F90148
:10015000E656FF4FD491F901EA57FF4FC491CC23E3
:10016000A9F0162F81110E947500EC2FF0E0EE0F20
:10017000FF1FE458FF4FA591B4918FB7F894EC910D
:10018000111108C0D095DE23DC938FBFDF91CF9192
:100190001F910895DE2BF8CFCF93DF9390E0FC0101
:1001A000E656FF4F24918A579F4FFC018491882384
:1001B000D1F090E0880F991FFC01EE58FF4FA591F8
:1001C000B491FC01E458FF4FC591D491623071F4B1
:1001D0009FB7F8943C91822F809583238C93E8817C
:1001E0002E2B28839FBFDF91CF9108958FB7F8946E
:1001F000EC912E2B2C938FBFF6CF1F920F920FB640
:100200000F9211242F933F938F939F93AF93BF939C
:100210008091050190910601A0910701B09108011C
:100220003091040123E0230F2D3758F50196A11DCD
:10023000B11D209304018093050190930601A093C2
:100240000701B09308018091000190910101A091F4
:100250000201B09103010196A11DB11D809300011F
:1002600090930101A0930201B0930301BF91AF915C
:100270009F918F913F912F910F900FBE0F901F90E4
:10028000189526E8230F0296A11DB11DD2CF7894B0
:1002900084B5826084BD84B5816084BD85B582608B
:1002A00085BD85B5816085BD80916E00816080933C
:1002B0006E001092810080918100826080938100A5
:1002C00080918100816080938100809180008160B5
:1002D000809380008091B10084608093B100809110
:1002E000B00081608093B00080917A008460809338
:1002F0007A0080917A00826080937A0080917A00FF
:10030000816080937A0080917A00806880937A007F
:100310001092C10061E082E00E94CC0061E083E0C5
:100320000E94CC0061E084E00E94CC0062E085E0A5
:100330000E94CC0061E089E00E94CC0061E08AE08C
:100340000E94CC0061E08BE00E94CC00C3EBD0E0C7
:100350000FE910E09BE8E92E90E0F92E20E0C22E94
:1003600020E0D22EFE018491F801A490F701B49010
:10037000BB2069F181110E947500EB2DF0E0EE0FBA
:10038000FF1FE859FF4FA591B4918C91A822F9F075
:1003900060E082E00E949E0060E083E00E949E0098
:1003A00060E084E00E949E0060E089E00E949E0080
:1003B00060E08AE00E949E0060E08BE00E949E0068
:1003C000C114D10409F4CECF0E940000CBCF61E06C
:1003D00082E00E949E0061E083E00E949E0061E056
:1003E00084E00E949E0061E089E00E949E0061E03E
:0E03F0008AE00E949E0061E0E0CFF894FFCF0B
:00000001FF
